:020000040800F2
:10000000D8050020ED010008B5360008B923000826
:10001000B1360008950700084741000800000000BD
:10002000000000000000000000000000453A000849
:100030009907000800000000B9360008473A000898
:10004000070200080702000807020008070200086C
:10005000070200080702000807020008070200085C
:10006000070200080702000807020008070200084C
:10007000070200080702000807020008070200083C
:10008000070200080000000007020008070200083D
:10009000070200080702000807020008070200081C
:1000A0000702000807020008D93A00080702000802
:1000B000E93A0008F93A0008093B0008070200087D
:1000C00007020008070200080702000807020008EC
:1000D00007020008070200080702000807020008DC
:1000E00007020008070200080702000807020008CC
:1000F00007020008070200080702000800000000CD
:1001000000000000070200080000000007020008CD
:1001100007020008000000000702000807020008AC
:10012000070200080702000807020008070200088B
:10013000070200080000000000000000070200089D
:10014000070200080702000800000000000000008D
:10015000000000000000000000000000000000009F
:10016000000000000000000000000000070200087E
:10017000070200080000000000000000000000006E
:10018000000000000702000800000000000000005E
:10019000000000000000000000000000000000005F
:1001A000000000000000000007020008070200082D
:1001B000070200080702000807020008000000000C
:1001C000000000000702000800000000000000001E
:1001D0000702000807020008DFF80CD000F038FA28
:1001E00000480047794A0008D805002006488047A3
:1001F00006480047FEE7FEE7FEE7FEE7FEE7FEE70C
:10020000FEE7FEE7FEE7FEE7BD3A0008D901000879
:10021000D2B201E000F8012B491EFBD27047002248
:10022000F6E710B513460A4604461946FFF7F0FFF5
:10023000204610BD00F0004230F000400AD0C10D51
:1002400001F56071C0F3160042EA0151C20840078F
:100250001143704700200146704730B50B460146F8
:1002600000202022012409E021FA02F59D4205D355
:1002700003FA02F5491B04FA02F52844151EA2F1FF
:100280000102F1DC30BD2DE9F05F05460020924609
:100290009B4688460646814640241BE02846414648
:1002A0004746224600F0F5F953465A46C01A914196
:1002B00010D311461846224600F0DCF92D1A67EBE0
:1002C00001084F4622460120002100F0D3F917EB28
:1002D00000094E41201EA4F10104DFDC48463146EE
:1002E0002A464346BDE8F09F2DE9FE4F804681EA4D
:1002F0000300C00F0C46009021F0004123F00045A0
:10030000B8EB0200A94105D24046214690461C4662
:100310000B46024623F00040104304D140462146DC
:1003200003B0BDE8F08F270DC7F30A00C3F30A51ED
:100330000290401A0190402866DAC3F3130040F49B
:10034000801B0098924620B10023D2EB030A63EB96
:100350000B0B01985946C0F14002504600F08AF953
:1003600006460D4650465946019A00F0A2F910EB98
:1003700008006141002487EA115284EAE7731A43B6
:100380003BD0009A3AB3019A012A4FEA075210DC97
:10039000001B61EB02014FF0004202EA0752CDE977
:1003A0000042001C41F5801132462B4600F0A0F9B6
:1003B000B6E7001B61EB0201001C41F58013001839
:1003C0005B412018A2F5001747EB030140EAD57006
:1003D000B6196D4111E06D084FEA360645EAC07561
:1003E0004FEA0752001B61EB0201001C41F580112E
:1003F00049084FEA30000019514132462B4603B0FC
:10040000BDE8F04F00F067B90098012240000023DA
:10041000D0EB020263EBE073009821464FEAE074F0
:10042000B8EB000061EB0401E9E783F000435BE710
:1004300081F0004158E72DE9FE4F81EA030404F002
:10044000004421F0004100944FF0000B23F00043E2
:1004500050EA010402D052EA030404D1002001460C
:1004600003B0BDE8F08FC3F30A54C1F30A552C441E
:10047000A4F2F3340194A0FB0254C1F3130141F43C
:100480008011C3F3130343F4801301FB024400FB08
:10049000034E840A970A44EA815447EA8357A4FB2F
:1004A000076802958D0A05FB07854FEA932C04FB2C
:1004B0000C542705029D4FEA065847EA1637B5EB5C
:1004C00008056EEB070C870E920E47EA811742EA89
:1004D0008312A7FB0201B6EB0B0164EB00042B0DAA
:1004E00043EA0C335E1844EB1C50DA465146E7FBF6
:1004F0000201C5F313044FEA0B3343EA14534FEAE6
:100500000432019C43EA0603A4F10C040294009C0B
:10051000CDE900B400F0ECF8A2E72DE9F04D81EA56
:10052000030404F0004B21F0004514464FF0000A8C
:1005300023F0004150EA050220D054EA01021DD008
:10054000C5F30A570246C5F31303C1F31300C1F301
:100550000A5640F4801543F48013A7EB0608101BDD
:10056000D64608F2FD3873EB050002D308F1010806
:1005700001E092185B41B8F1000F03DA0020014658
:10058000BDE8F08D00204FF48011064684460EE051
:10059000171B73EB050705D3121B63EB050306431B
:1005A0004CEA010C49084FEA300092185B4150EACE
:1005B0000107EDD152EA030012D082EA040083EA77
:1005C0000501084303D100224FF0004308E0101B4F
:1005D000AB4102D20122002302E06FF0010253106E
:1005E0001AEB06004CEB085110EB0A0041EB0B0133
:1005F000BDE8F04D00F06FB8C1F30A52C1F313012A
:1006000040F2FF3341F480119A4202DA00200146A1
:10061000704740F233439A42A2F2334202DC524224
:1006200000F037B800F026B830B5002904DB4FF0F1
:100630000044404264EB0101002B04DB4FF0004416
:10064000524264EB0303994208BF904230BD000060
:10065000064C074D06E0E06840F0010394E807000F
:1006600098471034AC42F6D3FFF7BAFD945C00080B
:10067000B45C0008202A04DB203A00FA02F10020D2
:1006800070479140C2F1200320FA03F319439040D0
:100690007047202A04DB203A21FA02F0002170473B
:1006A00021FA02F3D040C2F12002914008431946DA
:1006B0007047202A06DBCB17203A41FA02F043EAC2
:1006C000E07306E041FA02F3D040C2F1200291400B
:1006D00008431946704710B5002B08DA401C41F159
:1006E000000192185B411A4301D120F0010010BDB6
:1006F0002DE9F04D92469B4611B1B1FA81F202E02C
:10070000B0FA80F220329046FFF7B4FF04460F465D
:1007100040EA0A0041EA0B0153465A46084303D116
:1007200020463946BDE8F08D114653EA010015D048
:10073000C8F140025046FFF7ACFF05460E46504652
:1007400059464246FFF796FF084301D0012000E0DA
:100750000020054346EAE0762C4337430A984FEAE7
:100760004453A0EB08004FEAD4240A304FF00002B3
:1007700044EA47544FEAD72502D500200146D1E785
:10078000010510196941DDE9084500196941BDE815
:10079000F04DA0E700BFFEE77047002109E000220E
:1007A00001E0531C9AB240F6B8339A42F9DB4B1C75
:1007B00099B28142F3DB704772B600BFFEE70000DA
:1007C00070B5044600F008F906462546681C02D0BC
:1007D00004480068054400BF00F0FEF8801BA842F2
:1007E000FAD370BD6000002078B503460022D0E047
:1007F000012696400D6805EA0604002C72D04D686B
:10080000012D08D04D68022D05D04D68112D02D064
:100810004D68122D13D1986856000325B540A843A2
:100820005600CD68B540284398605868012595402A
:10083000A8430D79C5F30015954028435860D86842
:1008400056000325B540A84356008D68B54028439F
:10085000D8604D68022D02D04D68122D13D1D608F4
:1008600003F1200555F826005507EE0E0F25B5407B
:10087000A8435607F60E0D69B5402843D60803F184
:10088000200545F82600186856000325B540A84302
:100890000D7905F003055600B540284318604D68F2
:1008A00005F08055B5F1805F72D100BF3B4D2D6ED4
:1008B00045F00105394E356635462D6E05F00105CA
:1008C000009500BF00BF4FEAB635960855F82600E0
:1008D00095072E0F0F25B540A843B3F1904F02D1D5
:1008E00000251AE054E02E4DAB4201D1012514E061
:1008F0002C4DAB4201D102250FE02B4DAB4201D173
:1009000003250AE0294DAB4201D1042505E0284D1D
:10091000AB4201D1052500E006259607360FB5400C
:100920002843244D960845F82600234D2868A04307
:100930004D6805F48035B5F5803F00D120431E4D4C
:1009400028602D1D2868A0434D6805F40035B5F5D5
:10095000003F00D12043184D2D1D28602D1D286813
:10096000A0434D6805F48015B5F5801F00D12043E4
:10097000114D083528602D1D2868A0434D6805F4E9
:100980000015B5F5001F00D120430B4D0C35286034
:10099000521C0D68D5407FF42BAF78BD001002408B
:1009A0000004004800080048000C004800100048FF
:1009B0000014004808000140000401400246136989
:1009C0000B4201D0012000E0002070470AB1816194
:1009D00000E0816270470000014800687047000035
:1009E000640000200348006803490968084401497D
:1009F00008607047640000206000002010B50024EB
:100A0000032000F0A9F8002000F008F808B1012444
:100A100001E000F02FF8204610BD000070B504463C
:100A2000002511480068D8B10F4800684FF47A716A
:100A3000B1FBF0F00D490968B1FBF0F6304600F06B
:100A400031FD58B9102C07D200222146501E00F06B
:100A500045F80748046004E0012502E0012500E0B4
:100A60000125284670BD00006000002068000020BD
:100A70005C00002008B500BF0E48006E40F0010089
:100A80000C4908660846006E00F00100009000BFA7
:100A900000BF00BF0846806D40F080508865084662
:100AA000806D00F08050009000BF00BF00F0F8F8AB
:100AB00008BD00000010024010B50146084600289D
:100AC0000ADB00F01F0301229A4043094FF0E024A3
:100AD00004EB8303C3F8002100BF10BD2DE9F05FD4
:100AE00080460D46164603F045FB074639462A4622
:100AF000334601F00700C0F1070ABAF1040F02D92A
:100B00004FF0040A01E0C0F1070AD14600F1040ADF
:100B1000BAF1070F02D24FF0000A01E0A0F1030A78
:100B2000D4464FF0010A0AFA09FAAAF1010A0AEAC0
:100B3000020A0AFA0CFA4FF0010B0BFA0CFBABF1AC
:100B4000010B0BEA030B4AEA0B042146404603F073
:100B500019FBBDE8F09F000000BF00F00702064B44
:100B600019684FF6FF031940044B0B4343EA022177
:100B7000014B196000BF70470CED00E00000FA0562
:100B800002469ABB4248006800F4C060B0F5806F2E
:100B90002DD14048006820F480703D4BC3F88000A0
:100BA0001846006820F4C06040F4007018603A48AD
:100BB00000684FF0320300FB03F0384BB0FBF3F05A
:100BC00000F1010100E0491E3148406900F48060F5
:100BD000B0F5806F01D10029F5D12D48406900F4AE
:100BE0008060B0F5806F51D10320704707E029483D
:100BF000006820F48070264BC3F8800046E0B2F510
:100C0000007F3BD12248006800F4C060B0F5806FDF
:100C10002CD12048006840F480701D4BC3F8800040
:100C20001846006820F4C06040F4007018601A484C
:100C300000684FF0320300FB03F0184BB0FBF3F0F9
:100C400000F1010100E0491E1148406900F4806094
:100C5000B0F5806F01D10029F5D10D48406900F44D
:100C60008060B0F5806F11D10320BEE709480068AD
:100C700040F48070064BC3F8800007E00448006829
:100C800020F4C06040F48060014B18600020ACE7A5
:100C900000700040807000406800002040420F005B
:100CA0000348806840F48040014988607047000034
:100CB000007000402DE9F04104460D464FF0000859
:100CC00014B90120BDE8F0817C48006800F00F00F5
:100CD000A8420ED27948006820F00F0028437749D7
:100CE00008600846006800F00F00A84201D001200B
:100CF000E8E7207810F0010F64D06068032823D162
:100D00006F48006810F0007F01D10120DAE702F09F
:100D1000D5FC06466B48864237D96948806810F092
:100D2000F00F06D0207800F0020002282DD1A06834
:100D300058BB6348806820F0F00040F080006049B4
:100D400088604FF0800820E06068022806D15C4887
:100D5000006810F4003F08D10120B3E7584800684C
:100D600010F4806F01D10120ACE700F0B3F8064623
:100D70005448864209D95248806820F0F00040F07B
:100D800080004F4988604FF080084D48806820F00F
:100D90000300616808434A498860FFF71DFE074663
:100DA00008E0FFF719FEC01B41F28831884201D9E3
:100DB000032087E74248806800F00C006168B0EBD0
:100DC000810FEED1207800F00200022820D1207897
:100DD00000F00400042805D13948806840F4E06040
:100DE00037498860207800F00800082807D1344887
:100DF000806820F4605040F4E060314988603048F9
:100E0000806820F0F000A16808432D49886008E060
:100E1000B8F1800F05D12A48806820F0F0002849F9
:100E200088602648006800F00F00A84219D92348BE
:100E3000006820F00F00284320490860FFF7CCFD30
:100E4000074608E0FFF7C8FDC01B41F28831884221
:100E500001D9032036E71948006800F00F00A842C6
:100E6000F0D1207800F00400042807D114488068ED
:100E700020F4E060E168084311498860207800F0C0
:100E80000800082808D10E48806820F460502169C5
:100E900040EAC1000A49886000F01CF808498968E6
:100EA000C1F30311084A515C01F01F01C840074912
:100EB000086007480068FFF7B1FD03E70020024023
:100EC0000010024000B4C4047C5C000868000020EC
:100ED0005C00002070B5224DAD6805F00C05042DB6
:100EE00001D120483AE01E4DAD6805F00C05082DF3
:100EF00001D11D4832E01A4DAD6805F00C050C2DEE
:100F00002BD1174DED6805F00304154DED68C5F3C1
:100F100003156A1C022C0CD0032C09D1124DB5FB11
:100F2000F2F50F4EF668C6F3062605FB06F10AE059
:100F300000BF0C4DB5FBF2F5094EF668C6F3062668
:100F400005FB06F100BF00BF054DED68C5F3416527
:100F50006D1C6B00B1FBF3F000E0002070BD0000E1
:100F6000001002400024F40000127A002DE9F8433A
:100F7000044614B90120BDE8F883207810F0010F71
:100F800062D0FE48806800F00C07FC48C06800F0A2
:100F900003060C2F01D1032E01D0082F09D1F748E9
:100FA000006810F4003F4FD0606800284CD1012049
:100FB000E1E700BF6068B0F5803F06D1EF48006808
:100FC00040F48030ED4908601AE06068B0F5A02F69
:100FD0000BD1EA48006840F48020E84908600846E0
:100FE000006840F4803008600AE0E448006820F4BB
:100FF0008030E24908600846006820F480200860DC
:1010000000BF606880B1FFF7E7FC054606E0FFF728
:10101000E3FC401B642801D90320ACE7D7480068F3
:1010200010F4003FF3D00FE0FFF7D6FC054606E0D2
:10103000FFF7D2FC401B642801D903209BE7CF486F
:10104000006810F4003FF3D1207800F0020002287D
:101050005ED1CA48806800F00C07C848C06800F03C
:1010600003060C2F01D1022E01D0042F18D1C34842
:10107000006810F4806F03D0E06808B901207AE7B7
:10108000BE48406820F0FE40217C40EA0160BB4938
:101090004860BB480068FFF7C1FC10B301206AE755
:1010A000E068F8B1B548006840F48070B349086062
:1010B000FFF792FC054606E0FFF78EFC401B022876
:1010C00001D9032057E7AD48006810F4806FF3D0D2
:1010D000AA48406820F0FE40217C40EA0160A74910
:1010E000486015E0A548006820F48070A3490860B6
:1010F000FFF772FC054606E0FFF76EFC401B022876
:1011000001D9032037E79D48006810F4806FF3D1C0
:10111000207800F00800082830D16069B8B19948FB
:10112000006840F001009549C1F89400FFF754FCB5
:10113000054606E0FFF750FC401B022801D90320BA
:1011400019E79048006810F0020FF3D016E08D48C0
:10115000006820F001008949C1F89400FFF73CFCC9
:10116000054606E0FFF738FC401B022801D90320A2
:1011700001E78448006810F0020FF3D1207800F0F6
:101180000400042874D14FF000087C48806D0121D0
:1011900031EA10700FD000BF7848806D40F0805069
:1011A000764988650846806D00F08050009000BF49
:1011B00000BF4FF001087448006810F4807F15D11B
:1011C0007148006840F480706F490860FFF704FCC4
:1011D000054606E0FFF700FC401B022801D903206A
:1011E000C9E66948006810F4807FF3D000BFA068AA
:1011F000012807D16548006840F001005F49C1F847
:1012000090001FE0A06805280ED16048006840F0FB
:1012100004005A49C1F890000846D0F8900040F008
:101220000100C1F890000DE05848006820F001006E
:101230005249C1F890000846D0F8900020F0040010
:10124000C1F8900000BFA06898B1FFF7C5FB054644
:1012500008E0FFF7C1FB401B41F28831884201D909
:10126000032088E64948006810F0020FF1D012E030
:101270001BE0FFF7B1FB054608E0FFF7ADFB401BA5
:1012800041F28831884201D9032074E63F48006862
:1012900010F0020FF1D1B8F1010F05D13748806D80
:1012A00020F080503549886500BF207800F020008C
:1012B000202830D1A069B8B13548006840F001005D
:1012C0002E49C1F89800FFF787FB054606E0FFF7B7
:1012D00083FB401B022801D903204CE62C48006800
:1012E00010F0020FF3D016E02948006820F001004A
:1012F0002249C1F89800FFF76FFB054606E0FFF7AB
:101300006BFB401B022801D9032034E6204800680B
:1013100010F0020FF3D1E069002864D0174880680C
:1013200000F00C000C2874D0E06902285CD113484E
:10133000006820F0807011490860FFF74DFB0546FA
:1013400006E0FFF749FB401B022801D9032012E603
:101350000A48006810F0007FF3D1D4E90810401E5D
:1013600041EA0011A06A41EA0021208E0122C2EB6D
:10137000500041EA40513420005D0BE00010024073
:101380005C00002094100240007000409010024069
:1013900098100240C2EB500041EA40612C20005DF1
:1013A00041EAC0603C49C9683C4A114008433A4997
:1013B000C8600846006840F0807008600846C06851
:1013C00040F08070C860FFF707FB054606E0FFF7B6
:1013D00003FB401B022801D90320CCE52E480068FE
:1013E00010F0007FF3D055E02B48006820F08070AB
:1013F000294908600846C06820F00300C860084614
:10140000C068274908402449C860FFF7E5FA054647
:1014100007E00CE0FFF7E0FA401B022801D90320A7
:10142000A9E51D48006810F0007FF3D132E0E069C3
:10143000012800D19FE51848C66806F00301206A1C
:10144000814225D106F0F001606A401EB1EB001F19
:101450001ED106F4FE41A06AB1EB002F18D106F0B0
:1014600078412C20005DB1EBC06F11D106F4C001B2
:10147000208E0122C2EB5000B1EB405F08D106F094
:10148000C0613420005DC2EB5000B1EB406F01D071
:10149000012070E500206EE5001002400C809F01E5
:1014A000FFFFEEFE70B504462546681EB0F1807F52
:1014B00001D301200FE0681E4FF0E02148610F21A9
:1014C0004FF0FF3002F05EFE00204FF0E021886117
:1014D00007200861002070BD70477047704700000A
:1014E00010B50346002200BF93F83C00012801D14B
:1014F000022010BD012083F83C0000BFCC682246CA
:1015000022F440708C6840EA040222F480604C6847
:1015100040EA040222F400600C6840EA040222F46B
:1015200080500C6940EA040222F400504C6940EA01
:10153000040222F480400C6B40EA040222F4702082
:101540000C8B40EA04421D4C1868A04203D01C4C8E
:101550001868A04204D122F08050CC6940EA04020D
:10156000164C1868A04203D0154C1868A0421BD135
:1015700022F470000C8D40EA045222F080700C6A54
:1015800040EA040222F000704C6A40EA04020B4C6C
:101590001868A04203D00A4C1868A04204D122F077
:1015A0000050CC6A40EA04021868426400BF002080
:1015B00083F83C0000BF00BF9BE70000002C014007
:1015C00000340140704770477047000030B5024654
:1015D0000B4600BF92F83C00012801D1022030BD2B
:1015E000012082F83C0000BF022082F83D00106814
:1015F0004168106884681D4D1068A84203D01C4DD6
:101600001068A84203D121F47001586801431948B9
:1016100001401868014310684160144D1068A842E9
:1016200013D01068B0F1804F0FD0134D1068A8424E
:101630000BD0124D1068A84207D00D4D1068A8427B
:1016400003D00F4D1068A84205D124F0800498689B
:10165000044310688460012082F83D0000BF002030
:1016600082F83C0000BF00BFB9E70000002C014039
:10167000003401408FFFFFFD0004004000080040DF
:1016800000400140704710B504460CB9012010BD60
:1016900094F83D0028B9002084F83C00204600F072
:1016A00029F8022084F83D00211D206802F034FA58
:1016B000012084F8480000BF84F83E0001213F204B
:1016C000015540200155412001554220015543203C
:1016D000015500BF00BF012084F84400452001559A
:1016E000462001554720015500BF012084F83D00E8
:1016F0000020CCE710B586B00446142101A8FEF7FF
:101700008EFD2068B0F1804F32D100BF4E48806D11
:1017100040F001004C4988650846806D00F00100EA
:10172000009000BF00BF00BF0846C06C40F0010041
:10173000C8640846C06C00F00100009000BF00BF04
:101740004FF400400190022002900020039004908A
:101750000120059001A94FF09040FFF745F80022C5
:1017600011461C20FFF7BAF91C20FFF7A5F969E024
:1017700036492068884230D100BF3348806D40F040
:101780000200314988650846806D00F00200009033
:1017900000BF00BF00BF0846C06C40F00200C86434
:1017A0000846C06C00F00200009000BF00BF10208F
:1017B00001900220029000200390049002200590E6
:1017C00001A92348FFF710F8002211461D20FFF75A
:1017D00085F91D20FFF770F934E01E492068884222
:1017E00016D100BF1848806D40F004001649886586
:1017F0000846806D00F00400009000BF00BF00228A
:1018000011461E20FFF76AF91E20FFF755F919E06F
:1018100011492068884215D100BF0B48006E40F482
:101820008020094908660846006E00F48020009078
:1018300000BF00BF002211461A20FFF74FF91A20FF
:10184000FFF73AF906B010BD001002400004004056
:10185000000400480008004000480140014691F89B
:101860003D00012801D001207047022081F83D0091
:101870000868C06840F001000B68D860086880689C
:10188000074B00EA0302062A08D0B2F5803F05D0D4
:101890000868006840F001000B6818600020E3E76A
:1018A000070001002DE9F04104460D4600BF94F801
:1018B0003C00012802D10220BDE8F081012084F81B
:1018C0003C0000BF022084F83D0020688668404844
:1018D000064026F47F46206886602868B0F5805F61
:1018E00023D00BDC10F00F0F66D10011082863D253
:1018F000DFE800F0545556574A36401C354A811AE5
:10190000904251D00ADCB0F5005F1CD0B0F1101F3E
:1019100048D0A0F5801020384ED144E0102944D0A2
:10192000302943D0402947D141E046E0D5E90213B0
:101930006A68206802F05FF92068866846F07706DA
:101940002068866039E0D5E902136A68206802F0F1
:1019500052F92068806840F48040216888602CE05B
:10196000EA686968206802F031FB5021206802F0C3
:101970004DF922E0EA686968206802F079FB60218D
:10198000206802F043F918E0EA686968206802F00C
:101990001DFB4021206802F039F90EE000BF00BFB6
:1019A00000BF00BF00BF00BF00BF00BF00BF29686D
:1019B000206802F02BF900E000BF00BF012084F88E
:1019C0003D0000BF002084F83C0000BF00BF73E76B
:1019D00088FFCEFF3000100010B504462068B0F13B
:1019E000804F13D10021204600F0CCFC154908603F
:1019F00000202168486213480068134991FBF0F009
:101A0000124908600021204600F0CAF810492068F9
:101A1000884215D10021204600F0B4FC0D49086031
:101A2000002021684862216848630A480068064926
:101A300091FBF0F0084908600021204600F0B0F862
:101A400010BD00001800002040420F0010000020D0
:101A5000000400401C000020140000202DE9F0418B
:101A600004460D46164600BF94F83C00012802D1FA
:101A70000220BDE8F081012084F83C0000BF96B947
:101A8000EB68D5E90012206802F0B4FA206880699A
:101A900020F00C002168886120688069A9680843EB
:101AA000216888613DE0042E13D1EB68D5E900126E
:101AB000206802F0F1FA2068806920F44060216813
:101AC000886120688069A96840EA012021688861EE
:101AD00027E0082E12D1EB68D5E90012206802F049
:101AE000F8FA2068C06920F00C002168C8612068FD
:101AF000C069A96808432168C86112E0EB68D5E9AC
:101B00000012206802F001FB2068C06920F44060E8
:101B10002168C8612068C069A96840EA012021687D
:101B2000C86100BF002084F83C0000BF00BFA0E7F0
:101B300010B504460CB9012010BD94F83D0028B939
:101B4000002084F83C00204600F029F8022084F8A8
:101B50003D00211D206801F0DFFF012084F84800CE
:101B600000BF84F83E0001213F200155402001556F
:101B700041200155422001554320015500BF00BFBF
:101B8000012084F844004520015546200155472096
:101B9000015500BF012084F83D000020CCE77047CC
:101BA0002DE9F04104460D4615B994F83E0015E0C4
:101BB000042D02D13F20005D10E0082D02D140200D
:101BC000005D0BE00C2D02D14120005D06E0102DE0
:101BD00002D14220005D01E04320005D074615B9B7
:101BE00094F844000BE0042D02D14520005D06E08E
:101BF000082D02D14620005D01E04720005D8046AF
:101C0000012F02D1B8F1010F02D00120BDE8F0810F
:101C10001DB9022084F83E001AE0042D03D10221F0
:101C20003F20015514E0082D03D102214020015529
:101C30000EE00C2D03D102214120015508E0102DAA
:101C400003D102214220015502E002214320015527
:101C50001DB9022084F844000EE0042D03D10221B6
:101C60004520015508E0082D03D1022146200155E9
:101C700002E002214720015535B1042D0BD0082D7B
:101C800010D00C2D1CD114E02068C06840F0020078
:101C90002168C86015E02068C06840F00400216831
:101CA000C8600EE02068C06840F008002168C86085
:101CB00007E02068C06840F010002168C86000E0BC
:101CC00000BF00BF01222946206801F083FF206881
:101CD0008068084900EA0106062E08D0B6F5803F64
:101CE00005D02068006840F00100216808600020ED
:101CF0008CE700000700010010B504462068006969
:101D0000C0F34000D8B12068C068C0F34000B0B153
:101D10006FF0020021680861012020772068806947
:101D200010F0030F03D02046FFF756FE05E02046D3
:101D300000F030F9204600F01AFA002020772068E1
:101D40000069C0F38000D8B12068C068C0F380008B
:101D5000B0B16FF00400216808610220207720688C
:101D6000806910F4407F03D02046FFF735FE05E080
:101D7000204600F00FF9204600F0F9F90020207706
:101D800020680069C0F3C000D8B12068C068C0F303
:101D9000C000B0B16FF0080021680861042020770E
:101DA0002068C06910F0030F03D02046FFF714FE2F
:101DB00005E0204600F0EEF8204600F0D8F90020BB
:101DC000207720680069C0F30010D8B12068C0688F
:101DD000C0F30010B0B16FF0100021680861082056
:101DE00020772068C06910F4407F03D02046FFF7B9
:101DF000F3FD05E0204600F0CDF8204600F0B7F9ED
:101E0000002020772068006910F0010F0BD02068B7
:101E1000C06810F0010F06D06FF001002168086162
:101E2000204600F0A5F920680069C0F3C01058B141
:101E30002068C068C0F3C01030B16FF08000216826
:101E400008612046FFF749FB20680069C0F30020C5
:101E500058B12068C068C0F3C01030B16FF4807012
:101E6000216808612046FFF737FB20680069C0F34E
:101E7000801058B12068C068C0F3801030B16FF096
:101E8000400021680861204600F095FA206800694A
:101E9000C0F3401058B12068C068C0F3401030B1A2
:101EA0006FF02000216808612046FFF717FB2068CB
:101EB0000069C0F3005058B12068C068C0F30050FA
:101EC00030B16FF48010216808612046FFF77BFB7A
:101ED00020680069C0F3405058B12068C068C0F362
:101EE000405030B16FF40010216808612046FFF7C0
:101EF00069FB20680069C0F3805058B12068C06851
:101F0000C0F3805030B16FF4800021680861204632
:101F1000FFF75AFB20680069C0F3C05058B1206831
:101F2000C068C0F3C05030B16FF400002168086190
:101F30002046FFF7A7FB10BD10B586B0044614215C
:101F400001A8FEF76CF91149206888421BD100BF37
:101F50000F48C06C40F001000D49C8640846C06CD1
:101F600000F00100009000BF00BF8020019002201F
:101F700002900020039004900120059001A94FF0E9
:101F80009040FEF731FC06B010BD00000048014053
:101F900000100240704770B504460D46164600BF5B
:101FA00094F83C00012801D1022070BD012084F882
:101FB0003C0000BF0C2E51D005DC4EB1042E1ED0CB
:101FC000082E7AD133E0102E60D0142EF9D175E0AE
:101FD0002946206801F026FE2068806940F008004C
:101FE000216888612068806920F004002168886188
:101FF00020688069296908432168886177E029465B
:10200000206801F065FE2068806940F40060216866
:1020100088612068806920F4806021688861206878
:102020008069296940EA0120216888615FE02946CA
:10203000206801F0A7FE2068C06940F00800216810
:10204000C8612068C06920F004002168C861206868
:10205000C069296908432168C86148E029462068A9
:1020600001F0EAFE2068C06940F400602168C861A0
:102070002068C06920F480602168C8612068C06958
:10208000296940EA01202168C86130E029462068BA
:1020900001F02CFF2068006D40F008002168086501
:1020A0002068006D20F00400216808652068006D3C
:1020B000296908432168086519E017E02946206866
:1020C00001F04CFF2068006D40F400602168086555
:1020D0002068006D20F48060216808652068006D2C
:1020E000296940EA01202168086500E000BF00BFBF
:1020F00000BF002084F83C0000BF00BF55E710B5CA
:1021000004460CB9012010BD94F83D0028B9002008
:1021100084F83C00204600F029F8022084F83D00B5
:10212000211D206801F0F8FC012084F8480000BF60
:1021300084F83E0001213F200155402001554120F7
:102140000155422001554320015500BF00BF012029
:1021500084F844004520015546200155472001558B
:1021600000BF012084F83D000020CCE77047704795
:1021700010B504467E49206888427DD17D480068BC
:10218000401C7C490860084600686421B0FBF1F2FD
:1021900001FB120038B900207649086076480068D3
:1021A000401C754908607348006844F62061884205
:1021B00002D300206F49086001217048FEF7FEFB42
:1021C00008B1012000E000206D49087002216B4831
:1021D000FEF7F4FB08B1012000E000206849887296
:1021E00004216648FEF7EAFB08B1012000E0002068
:1021F0006349087501214FF09040FEF7DFFB08B1FD
:10220000012000E000205E4988770020ABE000EB71
:1022100080015B4A02EB4101097A05296FD2DFE8B0
:1022200001F003366F7D8B0000EB8001544A12F8F9
:10223000111021BB00EB800102EB41018988491C90
:1022400009B200EB80024E4B03EB4202918000EB9F
:1022500080011A4602EB4101B1F90410142915DB83
:10226000012100EB800203EB42021172002100EB1E
:10227000800203EB420200E078E0918006E000215A
:1022800000EB80023E4B03EB4202918068E000EBE2
:1022900080013B4A12F8111019BB00EB800102EBE0
:1022A00041018988491C09B200EB8002344B03EBE1
:1022B0004202918000EB80011A4602EB4101B1F924
:1022C0000410B1F57A7F19DB002100EB800203EBEB
:1022D00042029180032100EB800203EB4202117263
:1022E0000CE0002100EB8002254B03EB42029180C1
:1022F000022100EB800203EB4202117230E02EE07B
:10230000012100EB80021E4B03EB420251700421BD
:1023100000EB800203EB4202117221E0012100EB8D
:102320008002174B03EB42029170042100EB800204
:1023300003EB4202117213E000EB8001104A12F825
:10234000111059B1002100EB80020D4B03EB42024A
:10235000918000EB800203EB4202117200E000BFAB
:1023600000BF411CC8B20428FFF651AF10BD0000E9
:1023700000080040080000200C0000200004004875
:102380006C0000200246002031B1042907D0082942
:1023900008D00C290CD108E01368586B09E01368C9
:1023A000986B06E01368D86B03E01368186C00E0C4
:1023B00000BF00BF7047704700BFFEE700B585B0A3
:1023C00014216846FDF72BFF4FF6FF7000900020A8
:1023D0000190032003900020029069460248FEF716
:1023E00003FA05B000BD00000008004800B585B044
:1023F00014216846FDF713FF4FF6FF70009001208F
:102400000190032003900020029069460248FEF7E5
:10241000EBF905B000BD00000008004830B50546E6
:1024200000240021084600F049F900F097F900BFA8
:1024300003E0284600F056F9641CB4F5963FF8D343
:1024400030BD000000B587B0142102A8FDF7E7FEFB
:1024500000BF2B48C06C40F004002949C8640846FE
:10246000C06C00F00400019000BF00BF00BF084630
:10247000C06C40F00100C8640846C06C00F0010068
:10248000019000BF00BF00BF0846C06C40F00200D2
:10249000C8640846C06C00F00200019000BF00BF95
:1024A0004FF4487002900120039003200590002013
:1024B000049002A91348FEF797F94FF48070029038
:1024C00001200390032005900020049002A94FF002
:1024D0009040FEF789F9FFF789FF4FF0904080693F
:1024E00040F480704FF090418861064818300068D1
:1024F00040F4087003491831086007B000BD0000BF
:10250000001002400004004870B505460E4614460F
:10251000A4F12000C4B204EB4400044901EB001212
:102520003146284600F01AF870BD0000AC4A000899
:10253000F0B507460C46002540F23F1609E0227828
:1025400031463846FFF7E0FFA6F1100086B2641C62
:102550006D1C207808B1142DF1D3F0BD2DE9F043A6
:1025600006468946174600240025A046B04649463F
:10257000404600F0A3F800BF1EE000F0EFF8002591
:102580000FE037F814000121A940084204D10C489B
:10259000008800F0A7F803E00A48008800F0A2F8DD
:1025A0006D1C102DEDD308F1010000F0FF08494625
:1025B000404600F083F8641C182CDED3BDE8F0839D
:1025C000020000200000002010B5FFF73BFF0020B4
:1025D00000F016F80949088008460088A0F5024175
:1025E000303902D101F09EF801E001F02BF9002012
:1025F00000F006F80149088010BD0000040000202A
:1026000070B504462748006840F40070254908600A
:102610000846006840F4807008602248103800685E
:1026200040F020001F49103908601F4804601D4811
:10263000006840F020001B49086000BF00BF00BFD9
:1026400018481038006840F020001649103908601A
:102650000846006840F480700860FFF7AFFE4FF056
:102660009040806A40F480704FF09041886200BFD3
:1026700000BF00BF0C48001F006885B24FF09040BB
:10268000806940F480704FF090418861FFF7AEFEA2
:1026900004481038006840F400700249103908609E
:1026A000284670BD280400481408004801B5BDF84C
:1026B00000000149088008BD0200002030B5044632
:1026C0000D462146202000F085F82946212000F003
:1026D00081F830BD01B5BDF800000149088008BD92
:1026E000000000201B49096841F40071194A11607B
:1026F00018491039096841F48071164A103A11607E
:102700001146096841F02001116013490860114920
:10271000096841F020010F4A116000BF00BF00BFEF
:102720000C491039096841F020010A4A103A116039
:102730001146096841F48071116000BF00BF00BFFD
:1027400004491039096841F40071024A103A1160D5
:102750007047000028040048140800481B4800681F
:1027600040F40070194908600846006840F4807021
:10277000086016481038006840F0200013491039EE
:1027800008602220124908601048006840F02000CC
:102790000E49086000BF00BF00BF0C481038006839
:1027A00040F020000949103908600846006840F4EC
:1027B0008070086000BF00BF00BF04481038006888
:1027C00040F400700149103908607047280400483F
:1027D00014080048214A126842F400721F4B1A6024
:1027E0001A46126842F480721A601C4A103A126843
:1027F00042F02002194B103B1A60194A1060174A28
:10280000126842F02002154B1A6000BF00BF00BFE3
:10281000124A103A126842F02002104B103B1A6024
:102820001A46126842F480721A600D4A11600B4A0F
:10283000126842F02002094B1A6000BF00BF00BFBF
:10284000064A103A126842F02002044B103B1A600C
:102850001A46126842F480721A60704728040048D1
:10286000140800488D48B0F90000B0F57A7F03DD08
:102870004FF47A70894908808848B0F9000010F553
:102880007A7F03DA4FF61840844908808448B0F90B
:102890000000642802DA6420814908808048B0F989
:1028A0000000B0F57A7F03DD4FF47A707C49088030
:1028B0007C48B0F90000B0F57A7F03DA4FF47A7003
:1028C000784908807748B0F9000042F210718842D8
:1028D00002DD084673490880734800886F490988FB
:1028E000084400B271490880714800886B49098822
:1028F000084400B26F4908806C48B0F90000002815
:1029000007DD6A48B0F900006B4991FBF0F06B49B4
:1029100008606848B0F90000002807DD6548B0F994
:102920000000654991FBF0F0654908605D48B0F929
:1029300000005E49B1F9001088420CDC6148007863
:1029400060B961480088401C00B25F4908800120DE
:102950005C49087002E000205A4908705148B0F9FB
:1029600000005449B1F9001088420CDC5748007847
:1029700060B957480088401C00B2554908800120C2
:102980005249087002E00020504908705148006820
:102990001E281CD300204F4908604448B0F90000AD
:1029A0004D4908804148B0F900004C490880414831
:1029B000B0F900004A4908803E48B0F90000494992
:1029C00008800120484908704849087065E0374888
:1029D000B0F900004049B1F90010884204DD3348E5
:1029E000B0F900003C4908803048B0F900003B498C
:1029F000B1F90010884204DA2C48B0F900003749D8
:102A000008803548B0F900003449B1F90010401A87
:102A10002349B1F9001088420CDD334800780128C1
:102A200008D133480088401C00B23149088000209A
:102A30002D4908701F48B0F900002949B1F900106C
:102A4000884204DD1B48B0F9000025490880194878
:102A5000B0F900002349B1F90010884204DA1548A2
:102A6000B0F900001F4908801D48B0F900001D4959
:102A7000B1F90010401A0A49B1F9001088420CDD82
:102A80001A480078012808D11A480088401C00B272
:102A9000184908800020154908707047240000205C
:102AA0002000002022000020100000203400002020
:102AB000140000203600002040420F005400002087
:102AC00058000020300000202A00002031000020A3
:102AD0002C0000200C000020400000203C000020C2
:102AE000420000203E000020320000203300002081
:102AF000260000202800002010B51848FEF7AEFE82
:102B000000211748FFF74CF800211648FFF748F856
:102B1000FFF75AFD0020FFF7C9FD4FF6FF70FFF7E2
:102B2000D9FD0020FFF77AFC012204210E48FDF7B1
:102B30004DFF4FF47F400D490860002204210A48F0
:102B4000FDF744FF0A48B0F900000A490880084828
:102B5000B0F900000849088010BD000040010020C5
:102B6000A8000020F4000020000C004818080048CD
:102B700034000020400000203C0000204F484078F6
:102B8000012873D100204D49487008460078072875
:102B90006DD2DFE800F004294E708F8F8100484825
:102BA000007801281FD147480078012804D0022866
:102BB00009D0032815D10DE043480088643000B2E5
:102BC000414908800EE041480088643000B23F4926
:102BD000088007E03E480088643000B23C49088025
:102BE00000E000BF00BF66E03548007801281FD133
:102BF00034480078012804D0022809D0032815D1D0
:102C00000DE031480088643800B22F4908800EE09A
:102C10002E480088643800B22C49088007E02C4810
:102C20000088643800B22A49088000E000BF00BF75
:102C300041E02348007810B1012819D10AE0254865
:102C4000007818B901202349087002E000202149CA
:102C500008700EE01B480078401C1A4908700846AE
:102C60000078042801DB0120087002E024E021E064
:102C700000BF00BF1FE012480078401C10490870D8
:102C800008460078032806DB002008701149087008
:102C900001200C4908700EE009480078022808D18C
:102CA00000200D4908800D4908800D4908800D4914
:102CB000088000E000BF00BF704700005100002006
:102CC0004E000020500000202000002022000020A4
:102CD000240000204F0000202600002028000020B3
:102CE0002A0000202C000020002027E000EB8001BB
:102CF000144A02EB4101497801290AD1124A517064
:102D000011460870002100EB80020E4B03EB4202DB
:102D1000517000EB80010B4A02EB410189780129D7
:102D20000AD1094A5170011D1170002100EB800287
:102D3000044B03EB42029170411CC8B20428D5DB5E
:102D4000704700006C0000205100002010B52DEDF0
:102D5000028BEA48007820B101287DD002287CD17E
:102D60004AE1E7A1EC4801F0F1F9EB491820FFF73F
:102D7000DFFBEA480078002871D1E948B0F900008B
:102D8000B0F57A7F07DAE648B0F90020E5A1E2481D
:102D900001F0DCF91BE0E248B0F9000000EE100A97
:102DA000B8EEC00ADFEDE40A80EE201A11EE104AF8
:102DB0002046FDF73FFA41EC100BB0EE408AF0EEF2
:102DC000608A53EC182BDDA1D34801F0BFF9D44839
:102DD000B0F90000002803DADDA1CF4801F0B6F910
:102DE000CD494820FFF7A4FBDE48B0F90000B0F55C
:102DF0007A7F07DADB48B0F90020DBA1C64801F092
:102E0000A5F91BE0D748B0F9000000EE100AB8EEB3
:102E1000C00ADFEDC90A80EE201A11EE104A2046E2
:102E2000FDF708FA41EC100BB0EE408AF0EE608A34
:102E300053EC182BD1A1B84801F088F9C948B0F972
:102E40000000002803DAD2A1B34801F07FF9B249AB
:102E50006020FFF76DFB6CE07CE002E1FFE7D1480A
:102E60000068B0F57A7F06DACE48CFA10268AA489A
:102E700001F06CF919E0CB4890ED000AB8EEC00AF9
:102E8000DFEDAD0A80EE201A11EE104A2046FDF764
:102E9000D1F941EC100BB0EE408AF0EE608A53ECB1
:102EA000182BC6A19C4801F051F99D48B0F90000CB
:102EB000002803DAA6A1984801F048F9964948206D
:102EC000FFF736FB14219448FDF7A9F9C0480068C4
:102ED000B0F57A7F06DABE48BEA102688E4801F0DE
:102EE00035F919E0BA4890ED000AB8EEC00ADFEDF6
:102EF000920A80EE201A11EE104A2046FDF79AF948
:102F000041EC100BB0EE408AF0EE608A53EC182BC7
:102F1000B5A1814801F01AF99248B0F900000028E3
:102F200003DA9BA17C4801F011F97B496020FFF78F
:102F3000FFFAB2A1784801F009F977497820FFF744
:102F4000F7FAAEA1744801F001F973499020FFF738
:102F5000EFFA87E0AFA1704801F0F8F86E49182049
:102F6000FFF7E6FAB148B0F90020B1A16A4801F0D4
:102F7000EDF869494820FFF7DBFAB248B0F90020C4
:102F8000B1A1654801F0E2F863496020FFF7D0FA8B
:102F9000B248B0F90020B2A15F4801F0D7F85E490D
:102FA0007820FFF7C5FAB348007830B1012805D082
:102FB00002280CD003281CD112E01BE0AEA1564819
:102FC00001F0C4F854494820FFF7B2FA12E0AAA170
:102FD000514801F0BBF850496020FFF7A9FA09E019
:102FE000A5A14D4801F0B2F84B497820FFF7A0FAAF
:102FF00000E000BF00BF35E0A1A1474801F0A6F8FE
:1030000045491820FFF794FAA348B0F90020A3A17E
:10301000414801F09BF840494820FFF789FAA4484D
:10302000B0F90020A3A13C4801F090F83A49602093
:10303000FFF77EFAA448B0F90020A4A1364801F0B9
:1030400085F835497820FFF773FAA548B0F90020D4
:10305000A4A1314801F07AF82F499020FFF768FACF
:1030600000E000BF00BF01220421A348FDF7AEFC31
:103070004FF47F40A14908602048007830B9002211
:103080004FF480719D481838FDF7A0FC2448B0F932
:1030900000006C49B1F90010884206DD00224FF4AF
:1030A000007196481838FDF791FC2E48B0F90000E1
:1030B0006449B1F90010884206DD00224FF48061B6
:1030C0008E481838FDF782FC7348B0F900000328D9
:1030D00004DA7748B0F90000032806DB00224FF439
:1030E000004186481838FDF771FC0022042182480F
:1030F000FDF76CFCBDEC028B10BD00004E00002003
:103100002020202020202020444154412020202025
:103110002020202000000000940000204F0000200C
:10312000340000202020202020413D2564487A20C2
:10313000202020202000000000007A4420202020B1
:1031400020413D252E32666B487A20202020200029
:103150002020202020413D4E554C4C202020202076
:1031600020000000360000202020202020423D25A5
:1031700064487A20202020202000000020202020E9
:1031800020423D252E32666B487A202020202000E8
:103190002020202020423D4E554C4C202020202035
:1031A00020000000540000202020202020413D2548
:1031B00064755320202020202000000020202020A3
:1031C00020413D252E32666D532020202020000016
:1031D000580000202020202020423D2564755320E7
:1031E00020202020200000002020202020423D25FB
:1031F0002E32666D53202020202000002020202029
:1032000020202020202020202020202020202020BE
:10321000000000002020202020202020504152418A
:10322000202020202020202000000000200000205E
:10323000202020202050443D2564487A2020202052
:103240002020000022000020202020202050483D87
:103250002564487A2020202020000000240000203F
:10326000202020202050583D2564487A202020200E
:103270002000000050000020202020203E00000000
:1032800020202020202020205245434420202020A0
:1032900020202020000000002600002020202020E8
:1032A000204E44413D2564202020202020000000A5
:1032B0002800002020202020204E44423D2564206C
:1032C00020202020200000002A0000202020202094
:1032D000204E48413D256420202020200000000091
:1032E0002C00002020202020204E48423D25642034
:1032F0002020202000000000000C00481808004892
:1033000000B587B0142102A8FCF789FF00BF504820
:10331000C06C40F004004E49C8640846C06C00F020
:103320000400019000BF00BF00BF0846C06C40F021
:103330002000C8640846C06C00F02000019000BF67
:1033400000BF00BF0846C06C40F00100C8640846DA
:10335000C06C00F00100019000BF00BF00BF084634
:10336000C06C40F00200C8640846C06C00F0020067
:10337000019000BF00BF00BF0846C06C40F00800CD
:10338000C8640846C06C00F00800019000BF00BF90
:1033900000224FF6FF712F48FDF718FB00224FF473
:1033A00080714FF09040FDF711FB002204212A4864
:1033B000FDF70CFB00224FF448712848FDF706FB8F
:1033C0004FF6FF70029001200390002004900590BA
:1033D00002A92048FDF708FA01200290002003907E
:1033E0000120049002A94FF09040FDF7FDF907205D
:1033F0000290002003900120049002A91748FDF7D5
:10340000F3F94FF4807002900120039000200490A3
:10341000059002A94FF09040FDF7E6F904200290D4
:103420000120039000200490059002A90A48FDF7AE
:10343000DBF94FF4487002900120039000200490C3
:10344000059002A90548FDF7CFF907B000BD0000BF
:103450000010024000080048000C0048000400482A
:1034600000B595B01C210EA8FCF7D9FE342101A8A7
:10347000FCF7D5FE2148224908604F204860002112
:103480001F4881606321C160002101614161816148
:10349000FEF7F9F808B1FDF78FF91948FEF72FFE8E
:1034A00008B1FDF789F960200E9032200F900020BE
:1034B0001090119012901390149000220EA91048B1
:1034C000FEF769FD08B1FDF777F900200190029041
:1034D0000390049005904FF4005006900020079050
:1034E0000D9001A90648FDF7FBFF08B1FDF764F94F
:1034F0000348FEF721FD15B000BD00000048014063
:103500008C01002000B58BB0002007900890099036
:103510000A9004900590069000900190029003900C
:103520004FF080401D4908604F20486000211B4833
:103530008160491EC160002101618161FEF7A3F82D
:1035400008B1FDF739F94FF48050079007A91348E7
:10355000FEF7A8F908B1FDF72FF91048FEF7E8FAD1
:1035600008B1FDF729F900200490069004A90B4842
:10357000FEF72CF808B1FDF71FF90020009001209C
:103580000190002002900390002269460348FEF754
:1035900065FA08B1FDF710F90BB000BDA8000020D6
:1035A00000B58BB000200790089009900A90049015
:1035B0000590069000900190029003901E481F49CC
:1035C00008604F20486000211C4881604FF6FF7161
:1035D000C160002101618161FEF755F808B1FDF776
:1035E000EBF84FF48050079007A91448FEF75AF9FA
:1035F00008B1FDF7E1F81148FEF79AFA08B1FDF7B6
:10360000DBF800200490069004A90C48FDF7DEFFCB
:1036100008B1FDF7D1F800200090012001900020B2
:1036200002900390002269460448FEF717FA08B199
:10363000FDF7C2F80BB000BD00040040F40000200C
:1036400000B587B00020039004900590069000908C
:10365000019002901448154908604F2048600021ED
:103660001248816040F2E731C1600021016181614F
:10367000FEF709F808B1FDF79FF84FF4805003906A
:1036800003A90A48FEF70EF908B1FDF795F80020E6
:103690000090029069460548FDF798FF08B1FDF7D4
:1036A0008BF807B000BD000000080040400100207A
:1036B00000BFFEE700BFFEE77047000070B5164D83
:1036C000ED6805F00304144DED68C5F303156B1C9C
:1036D000022C0CD0032C09D1104DB5FBF3F50E4E86
:1036E000F668C6F3062605FB06F10AE000BF0C4D9E
:1036F000B5FBF3F5084EF668C6F3062605FB06F1A2
:1037000000BF00BF044DED68C5F341656D1C6A0044
:10371000B1FBF2F070BD00000010024000127A0010
:103720000024F40000B501210020FFF753F84FF406
:103730007A70FDF732F800210120FFF74BF841F2D3
:1037400090711020FFF746F84FF41C516020FFF7EE
:1037500041F801216120FFF73DF802214620FFF7E3
:1037600039F848F210011320FFF734F848F2FE014F
:103770001220FFF72FF84FF4A0610220FFF72AF87C
:1037800041F230010320FFF725F840F203313020E9
:10379000FFF720F840F203313120FFF71BF840F229
:1037A00003313220FFF716F84FF440713320FFF752
:1037B00011F803213420FFF70DF840F203313520D2
:1037C000FFF708F814213620FFF704F840F2033120
:1037D0003720FEF7FFFF40F203313820FEF7FAFFF3
:1037E00040F203313920FEF7F5FF4FF440713A20E3
:1037F000FEF7F0FF03213B20FEF7ECFF40F2033120
:103800003C20FEF7E7FF4FF4A0513D20FEF7E2FF1A
:103810004FF400719220FEF7DDFF40F20331932058
:10382000FEF7D8FF40F60D019020FEF7D3FF41F2DE
:1038300018010320FEF7CEFF40F273110720FEF7B8
:10384000C9FF00BD10B543F20801E320FEF7C2FF37
:103850001221E720FEF7BEFF41F23121EF20FEF7F3
:10386000B9FF00210120FEF7B5FF4FF4E06102200F
:10387000FEF7B0FF41F230010320FEF7ABFF00215D
:103880000420FEF7A7FF40F207210820FEF7A2FF61
:1038900000210920FEF79EFF00210A20FEF79AFF73
:1038A00000210C20FEF796FF00210D20FEF792FF6D
:1038B00000210F20FEF78EFF00211020FEF78AFF67
:1038C00007211120FEF786FF00211220FEF782FF5C
:1038D00000211320FEF77EFFC820FCF771FF41F2A4
:1038E00090611020FEF776FF40F227211120FEF7AD
:1038F00071FF3220FCF764FF1D211220FEF76AFFE2
:103900003220FCF75DFF4FF400611320FEF762FFE9
:1039100014212920FEF75EFF0B212B20FEF75AFF12
:103920003220FCF74DFF00212020FEF753FF00213D
:103930002120FEF74FFF07213020FEF74BFF40F21A
:1039400007713120FEF746FF06213220FEF742FFC5
:1039500040F204713520FEF73DFF41F60471362038
:10396000FEF738FF04213720FEF734FF002138200E
:10397000FEF730FF40F206713920FEF72BFF40F2D0
:1039800001713C20FEF726FF0F213D20FEF722FFAC
:1039900000215020FEF71EFFEF215120FEF71AFFF5
:1039A00000215220FEF716FF40F23F115320FEF790
:1039B00011FF4FF41C516020FEF70CFF0121612024
:1039C000FEF708FF00216A20FEF704FF0021802097
:1039D000FEF700FF00218120FEF7FCFE002182207F
:1039E000FEF7F8FE00218320FEF7F4FE002184207C
:1039F000FEF7F0FE00218520FEF7ECFE102190205E
:103A0000FEF7E8FE00219220FEF7E4FE032193205A
:103A1000FEF7E0FE4FF488719520FEF7DBFE0021F3
:103A20009720FEF7D7FE00219820FEF7D3FE41F243
:103A300018010320FEF7CEFE40F273110720FEF7B7
:103A4000C9FE10BD704710B5FCF7CCFF10BD00B526
:103A500093B0382105A8FCF7E2FB14216846FCF777
:103A6000DEFB4FF40070FDF78BF802200590C001DB
:103A700008904020099002200C9002210D91012114
:103A80000E910A210F91022110911191129105A816
:103A9000FDF76CFA08B1FCF78FFE0F2000900320B1
:103AA0000190002002900390049002216846FDF7E7
:103AB00001F908B1FCF780FE13B000BD05480068AD
:103AC00040F47000034908604FF0006001498039FC
:103AD0000860704788ED00E010B50248FEF70CF969
:103AE00010BD00008C01002010B50248FEF704F95B
:103AF00010BD0000A800002010B50248FEF7FCF839
:103B000010BD0000F400002010B50248FEF7F4F8E4
:103B100010BD00004001002010B50268264B9842FD
:103B20000BD0B0F1804F08D0244B984205D0244BE5
:103B3000984202D0234B984203D122F070024B6886
:103B40001A431D4B984214D0B0F1804F11D01B4B3B
:103B500098420ED01A4B98420BD01A4B984208D07C
:103B6000194B984205D0194B984202D0184B9842F5
:103B700003D122F44072CB681A4322F080034C69CF
:103B800043EA040202608B68C3620B6883620A4BDB
:103B900098420BD00B4B984208D00B4B984205D063
:103BA0000A4B984202D00A4B984201D10B69036339
:103BB0000123436110BD0000002C014000040040BF
:103BC0000008004000340140004001400044014032
:103BD0000048014030B501F01F05012404FA05F347
:103BE000046A9C430462046A01F01F0502FA05F5A9
:103BF0002C43046230BD30B50C46816821F47F410E
:103C000042EA032525432943816030BD0A46816885
:103C1000034B194042F007031943816070470000CD
:103C20008FFFCFFF30B5056A25F001050562026AF6
:103C300043688469204D2C4024F003040D682C4314
:103C400022F002028D682A431C4DA84200D10FE0E9
:103C50001B4DA84200D10BE01A4DA84200D107E04D
:103C6000194DA84200D103E0184DA84206D100BF6B
:103C700022F00802CD682A4322F004020F4DA84228
:103C80000BD00F4DA84208D00E4DA84205D00E4DC6
:103C9000A84202D00D4DA84207D123F4807323F42B
:103CA00000734D692B438D692B43436084614D68DC
:103CB0004563026230BD00008FFFFEFF002C014013
:103CC00000340140004001400044014000480140F0
:103CD00030B5056A25F010050562026A43688469FB
:103CE000224D2C4024F440740D6844EA052422F04F
:103CF00020028D6842EA05121D4DA84200D10FE056
:103D00001C4DA84200D10BE01B4DA84200D100BFC2
:103D10001A4DA84200D100BF194DA84207D106E0B4
:103D200022F08002CD6842EA051222F04002104DD6
:103D3000A8420BD00F4DA84208D00F4DA84205D085
:103D40000E4DA84202D00E4DA84209D123F4806343
:103D500023F400634D6943EA85038D6943EA8503D3
:103D6000436084614D688563026230BDFF8FFFFE52
:103D7000002C01400034014000400140004401405B
:103D80000048014030B5056A25F480750562026A75
:103D90004368C469224D2C4024F003040D682C4371
:103DA00022F400728D6842EA05221E4DA84200D11D
:103DB0000FE01D4DA84200D10BE01C4DA84200D1E0
:103DC00000BF1B4DA84200D100BF1A4DA84207D129
:103DD00006E022F40062CD6842EA052222F4806205
:103DE000104DA8420BD0104DA84208D00F4DA8424C
:103DF00005D00F4DA84202D00E4DA84209D123F4A0
:103E0000805323F400534D6943EA05138D6943EA57
:103E100005134360C4614D68C563026230BD000094
:103E20008FFFFEFF002C01400034014000400140A4
:103E3000004401400048014030B5056A25F4805532
:103E40000562026A4368C469224D2C4024F4407420
:103E50000D6844EA052422F400528D6842EA0532D6
:103E60001D4DA84200D10FE01C4DA84200D10BE02F
:103E70001B4DA84200D100BF1A4DA84200D100BF7F
:103E8000194DA84207D106E022F40042CD6842EA6B
:103E9000053222F48042104DA8420BD00F4DA842AB
:103EA00008D00F4DA84205D00E4DA84202D00E4DAD
:103EB000A84209D123F4804323F400434D6943EA27
:103EC00085138D6943EA85134360C4614D680564B9
:103ED000026230BDFF8FFFFE002C01400034014024
:103EE00000400140004401400048014030B5056AEF
:103EF00025F480350562026A4368046D114D2C403B
:103F00000D682C4322F400320D8942EA05420E4D21
:103F1000A8420BD00D4DA84208D00D4DA84205D0A7
:103F20000C4DA84202D00C4DA84204D123F480339A
:103F30004D6943EA0523436004654D688564026268
:103F400030BD00008FFFFEFF002C01400034014017
:103F500000400140004401400048014030B5056A7E
:103F600025F480150562026A4368046D114D2C40EA
:103F70000D6844EA052422F400120D8942EA055234
:103F80000D4DA8420BD00D4DA84208D00C4DA842B3
:103F900005D00C4DA84202D00B4DA84204D123F409
:103FA00080234D6943EA8523436004654D68C564F9
:103FB000026230BDFF8FFFFE002C01400034014043
:103FC00000400140004401400048014030B50B462C
:103FD0001446026A056A25F001050562816921F02F
:103FE000F00141EA041122F00A021A4381610262DF
:103FF00030BD000070B50C461546066A26F0010675
:1040000006628169026A154EB0420ED0B0F1804F4F
:104010000BD0134EB04208D0124EB04205D0124E13
:10402000B04202D0114EB04201D1012600E000267C
:104030001EB121F00301294301E041F0010121F00B
:10404000F001F02606EA0316314322F00A0204F0DA
:104050000A0632438161026270BD0000002C0140FB
:1040600000040040000800400034014000400140CE
:1040700030B50B461446056A25F0100505628169C6
:10408000026A21F4704141EA043122F0A00242EABE
:1040900003128161026230BD70B50C461546066A96
:1040A00026F0100606628169026A21F4407141EA35
:1040B000052121F470414FF4704606EA033631437E
:1040C00022F0A002A02606EA0416324381610262B1
:1040D00070BD70B50C461546066A26F480760662F9
:1040E000C169026A21F00301294321F0F001F026A1
:1040F00006EA0316314322F420624FF4206606EAF2
:1041000004263243C161026270BD70B50C4615468B
:10411000066A26F480560662C169026A21F440717B
:1041200041EA052121F470414FF4704606EA033656
:10413000314322F420424FF4204606EA043632434B
:10414000C161026270BD00BFFEE700000FB4084B02
:1041500010B504A902AA039800F0E6F8044602A9E3
:10416000002000F084FC204610BC5DF814FB000029
:104170006F4A000802480068C0F302207047000040
:104180000CED00E010B5002804DB0A07130E054A09
:10419000135406E00A07140E034A00F00F031B1F16
:1041A000D45410BD00E400E018ED00E002E008C8BF
:1041B000121F08C1002AFAD170477047002001E0A1
:1041C00001C1121F002AFBD1704700002DE9FF5FDB
:1041D000DDE90220010DDDF838B0024310D10F985F
:1041E00001244CA2012808D0002100980F9BC0E9AF
:1041F0000021C0E90243BDE8FF9F6FEA0B01F4E72D
:10420000A1F2FF3144F6105041430D140F980128DC
:104210000ED0A5EB0B00401C4FF000043E4EDFF823
:10422000FC90B0F1000AA04605DACAF1000717E0D9
:10423000CBF10000F0E7074612E0F80707D022466E
:10424000334640464946FCF7F6F880468946224602
:10425000334610461946FCF7EEF804460E467F102A
:10426000002FEAD1DDE90201BAF1000F42464B46C8
:1042700002DAFCF7E0F801E0FCF74FF904460E46DD
:104280000022274BFCF7D0F903D84FF0FF3001464E
:1042900007E00022234B20463146FCF725F8FCF7C7
:1042A000ABF9102409E0002C0ADB0A220023FBF7FB
:1042B000EAFF019B30321A55641E50EA0102F2D126
:1042C000641C019AC4F1110314440F9A012A09D005
:1042D0000122084301D15B450FDD4FF0000205F1DB
:1042E00001050DE0084303D1A3EB0B056D1E09E0AA
:1042F00000204FF0110B0F9088E701DA00226D1EAD
:10430000002A83D000980F99C0E90231C0E9004526
:1043100071E7000030000000000024400000F03F82
:104320000000F0430000E03F2DE9FF4F95B09B46B1
:1043300089460646002512E2252878D10024761CFD
:10434000F94A2746012105943378203B01FA03F00E
:10435000104202D00443761CF6E730782A2811D0A8
:104360006FF02F033078A0F13002092A16D8059A91
:1043700044F0020402EB820203EB42021044761C7A
:104380000590EFE759F8042B0592002A03DA504212
:1043900044F40054059044F00204761C30782E2832
:1043A00016D116F8010F44F004042A280DD06FF03E
:1043B0002F023078A0F13003092B09D807EB8703CF
:1043C00002EB4303C718761CF3E759F8047B761C0D
:1043D00030786C280FD006DC4C2817D068280DD018
:1043E0006A2814D104E0742810D07A280FD10DE087
:1043F00044F400140AE044F4801401E044F440144E
:104400007278824202D1761C04F58014761C3078D2
:1044100066280BD013DC582877D009DC002875D02B
:104420004528F6D04628F4D047281AD19FE118E055
:10443000632835D0642879D0652812D197E1702897
:1044400073D008DC6728F1D069286FD06E280DD0B2
:104450006F2806D1B5E073282CD0752875D0782840
:1044600074D05A46179990476D1C76E1C4F30250F8
:10447000022809D003280DD0D9F8001004280DD047
:104480000D6009F1040968E1D9F80010EA17C1E9E3
:104490000052F6E7D9F800100D80F2E70D70F0E752
:1044A00019F8041B8DF8001000208DF80100EA4671
:1044B000012003E059F804AB4FF0FF3061074FF0E3
:1044C000000102D40DE008F101018846B9420FDA7B
:1044D0008045F8DB1AF808100029F4D108E008F14B
:1044E000010188468142FADB1AF808100029F6D14A
:1044F00005985B46A0EB080721463846179A00F05E
:104500009EFA284400EB080507E04DE02BE10DE0A2
:104510001AF8010B5A4617999047B8F10108F7D2DB
:104520005B4621463846179A14E142E00A2200927F
:10453000C4F302524FF0000A022A08D059F804CB03
:10454000032A4FEAEC710AD00DE029E02AE009F1D4
:10455000070121F00702F2E802C1914609E00FFAD3
:104560008CFC4FEAEC71042A03D14FFA8CFC4FEA21
:10457000EC71002907DA0A460021DCF1000C61EB3E
:1045800002012D2202E0220504D52B228DF8042001
:10459000012203E0E20701D02022F7E7904653E032
:1045A0000A2102E010220DE010214FF0000A0091D4
:1045B0000BE010224FF0000A44F004040827009298
:1045C00003E008224FF0000A0092C4F30252022ACC
:1045D00005D059F804CB0021032A08D009E009F1DD
:1045E000070121F00702F2E802C1914605E01FFA37
:1045F0008CFC042A01D10CF0FF0C4FF000082207BC
:1046000022D5702827D0009B83F0100353EA0A03B9
:1046100009D15CEA010206D030228DF804208DF821
:10462000050002229046009B83F0080353EA0A0328
:104630000AD15CEA010201D1620705D530228DF86A
:1046400004204FF001087F1E582809D037A003909E
:104650000EA8029013E040228DF804200122E1E729
:1046600037A0F4E753466046009AFBF70CFE8446F9
:104670000398825C0298A0F10100029002705CEA4B
:104680000100EFD1029806A9A1EB000000F1200A79
:10469000600702D524F4803400E00127574502DD8D
:1046A000A7EB0A0000E0002000EB0A01009005984B
:1046B0004144A0EB01000590E00306D45B4621468F
:1046C000179A059800F0BBF90544002706E001A8F9
:1046D0005A46C05D179990476D1C7F1C4745F6DB15
:1046E000E0030CD55B462146179A059800F0A7F920
:1046F000054404E030205A46179990476D1C0099F4
:10470000481E00900029F5DC08E0029802995A46FC
:104710000078491C0291179990476D1CBAF100016D
:10472000AAF1010AF1DC6BE10928010030313233D2
:1047300034353637383961626364656600000000DD
:1047400030313233343536373839414243444546C7
:104750000000000000F060F9054406F10106307821
:1047600000287FF4E9AD19B02846BDE8F08F620754
:1047700000D4062709F1070222F0070CFCE8022307
:10478000E14603F000485FEA080C02D00FF27C2CEF
:104790000DE05FEA045C02D50FF2742C07E05FEADB
:1047A000C47C02D00FF26C2C01E0AFF2700C4FF021
:1047B000FF3823F00043CDF850C065280CD006DC4C
:1047C000452809D046281DD047283ED13EE066281E
:1047D00018D0672839D139E00021112F01DB1120D1
:1047E00000E0781CCDE9000106A90EA8FFF7EEFC59
:1047F000DDE90F010E9A03910021009207F1010AF1
:1048000004914EE04FF000400097CDE9011006A959
:104810000EA8FFF7DBFCDDE90F0203920E9B119956
:104820000022DDF80CA00093049219B907F10101F0
:1048300000EB010AB7EB0A0004D4C0F1FF3007F126
:10484000010A0490AAEB0700019046E0012F00DA6C
:1048500001270021112F01DD112000E03846CDE9AC
:10486000000106A90EA8FFF7B1FCDDE90F010E9AC1
:104870000391002104910092BA4621070CD40399B8
:10488000514500DA8A46BAF1010F05DD009AAAF116
:104890000101515C302908D0B84202DA10F1040F4E
:1048A00006DA0121CDE9011017E0AAF10101E9E7DB
:1048B000002805DC049901440491AAEB000102E000
:1048C000411C514500DD8A460499A0EB010000F12E
:1048D000010001904FF000400290200704D401989D
:1048E000504501DBCDF8048000208DF84F00029880
:1048F0000DF14F07B0F1004F25D02B200E900298FC
:104900004FF0020800280CDA404202902D200E9051
:1049100007E00A210298FBF7A0FC3031029007F86B
:10492000011DB8F10001A8F10108F2DC029800288D
:10493000EFD1791E0E980870307800F0200040F01A
:10494000450007F8020D12A8A0EB070000F10708C8
:104950001498007800B1012000EB0A01019801EBE6
:10496000E07105984144A0EB0100A0F10100059021
:10497000E00306D45B462146179A059800F05FF8DD
:1049800005441498007820B15A461799904705F1CC
:104990000105E00323D55B462146179A059800F0F0
:1049A0004EF805441BE00498002807DBDDE903010D
:1049B000884203DD0098405C179901E01799302088
:1049C0005A46904704986D1C401C04900198401E64
:1049D000019004D12E205A46179990476D1CBAF1C8
:1049E0000001AAF1010ADEDC05E017F8010B5A46C6
:1049F000179990476D1CB8F10001A8F10108F4DC8B
:104A00005B462146179A0598A4E600002D00000099
:104A10002B000000200000002DE9F0410446002595
:104A20001E461746880405D406E039462020B047C4
:104A300005F10105641EF8D52846BDE8F0812DE991
:104A4000F041044600251E469046C80301D5302794
:104A500000E02027880405D506E041463846B047E7
:104A600005F10105641EF8D52846BDE8F0810A6805
:104A7000531C0B6010707047FBF7C0FFFEF7E7FF99
:104A8000FEF73EFCFEF73EFDFEF78AFDFEF7D8FD81
:104A9000FEF7E6FCFEF730F807E0FEF725F9FEF733
:104AA0006DF8FDF7DFFEFEF751F9F6E700000000B4
:104AB00000000000000000000000000000000000F6
:104AC00000000000000000000000000000000000E6
:104AD0000000000000000000000000000000800155
:104AE00080018001800180018001800180018001BE
:104AF00080018001800180010000000080018001B0
:104B000000000000000000000000000000000000A5
:104B1000CC00CC00CC00CC00CC00CC0000000000CD
:104B20000000000000000000000000000000000085
:104B30000000000000000000000000000000000075
:104B40000000000000000000600C600C600C3006EB
:104B50003006FE1FFE1F300638071803FE1FFE1F1B
:104B6000180318038C018C018C01000000008000E8
:104B7000E003F80F9C0E8C1C8C188C009800F80138
:104B8000E007800E801C8C188C189C18B80CF00F55
:104B9000E003800080000000000000000000000032
:104BA00000000E181B0C110C110611061103110345
:104BB0009B018E01C038C06C604460443044304476
:104BC0001844186C0C380000000000000000E001E0
:104BD000F0033807180618063003F001F000F8005B
:104BE0009C310E33061E061C061C063FFC73F0218A
:104BF00000000000000000000000000000000000B5
:104C00000C000C000C000C000C000C00000000005C
:104C10000000000000000000000000000000000094
:104C20000000000000000000000000000000000282
:104C300000038001C000C000600060003000300050
:104C40003000300030003000300030006000600084
:104C5000C000C0008001000300020000000020002E
:104C60006000C00080018001000300030006000610
:104C7000000600060006000600060006000300030A
:104C800080018001C00060002000000000000000E2
:104C90000000000000000000C000C000D806F807B7
:104CA000E0013003380700000000000000000000B1
:104CB00000000000000000000000000000000000F4
:104CC00000000000000000008001800180018001E0
:104CD0008001FC3FFC3F8001800180018001800158
:104CE00000000000000000000000000000000000C4
:104CF00000000000000000000000000000000000B4
:104D00000000000000000000000000000000800122
:104D10008001000100018000000000000000000090
:104D20000000000000000000000000000000000083
:104D300000000000E007E0070000000000000000A5
:104D40000000000000000000000000000000000063
:104D50000000000000000000000000000000000053
:104D60000000000000000000000000000000C00083
:104D7000C000000000000000000000000000000C67
:104D8000000C000600060006000300030003800379
:104D9000800180018001C000C000C0006000600090
:104DA0000000000000000000000000000000E00320
:104DB000F007380E180C0C180C180C180C180C18DE
:104DC0000C180C180C180C18180C380EF007E0030F
:104DD00000000000000000000000000000000001D2
:104DE0008001C001F00198018801800180018001EB
:104DF00080018001800180018001800180018001AB
:104E00000000000000000000000000000000E003BF
:104E1000F80F180C0C180C1800180018000C0006DD
:104E200000038001C000600030001800FC1FFC1F60
:104E30000000000000000000000000000000E00191
:104E4000F807180E0C0C0C0C000C0006C003C00771
:104E5000000C001800180C180C18180CF807E003C8
:104E60000000000000000000000000000000000C36
:104E7000000E000F000F800DC00C600C600C300C99
:104E8000180C0C0CFC3FFC3F000C000C000C000C40
:104E90000000000000000000000000000000F80F0B
:104EA000F80F180018000C00EC03FC071C0E001C87
:104EB0000018001800180C181C0C180EF807E00356
:104EC0000000000000000000000000000000C0071B
:104ED000F00F381C181818000C00CC03EC0F3C0E17
:104EE0001C1C0C180C180C18181C380EF007E003CA
:104EF0000000000000000000000000000000FC1F97
:104F0000FC1F000C00060006000380038001C001A6
:104F1000C000E00060006000700030003000300031
:104F20000000000000000000000000000000E0039E
:104F3000F007380E180C180C180C3806F007F0079C
:104F4000180C0C180C180C180C18380CF80FE0037F
:104F50000000000000000000000000000000E0036E
:104F6000F007380E1C0C0C180C180C181C1C381EE2
:104F7000F81BE0190018000C000C1C0EF807F001DB
:104F80000000000000000000000000000000000021
:104F9000000000000000000080018001000000000F
:104FA00000000000000000000000000080018001FF
:104FB00000000000000000000000000000000000F1
:104FC00000000000000000008001800100000000DF
:104FD00000000000000000000000000080018001CF
:104FE000000100018000000000000000000000003F
:104FF0000000000000000000000000000010001C85
:10500000800FE003F8001800F800E003800F001C98
:105010000010000000000000000000000000000080
:10502000000000000000000000000000F81F000069
:1050300000000000F81F0000000000000000000059
:105040000000000000000000000000000000000060
:105050000000000000000000000000000800380010
:10506000F001C007001F0018001FC007F001380042
:105070000800000000000000000000000000E00345
:10508000F80F180C0C180C180018000C0006000380
:105090008001C000C000C00000000000C000C000CF
:1050A0000000000000000000000000000000000000
:1050B000E00718180420C229224A1144094409446F
:1050C000094409221113E20C024004201818E007D9
:1050D000000000000000000000000000000080034D
:1050E0008003C006C006C006600C600C3018301883
:1050F0003018F83FF83F1C700C600C6006C006C00A
:105100000000000000000000000000000000FC03A0
:10511000FC0F0C0C0C180C180C180C0CFC07FC0FDA
:105120000C180C300C300C300C300C18FC1FFC0729
:105130000000000000000000000000000000C007A8
:10514000F01F38381C300C700660060006000600A0
:1051500006000600060006600C701C30F01FE00719
:105160000000000000000000000000000000FE033E
:10517000FE0F060E061806180630063006300630FA
:1051800006300630063006180618060EFE0FFE031F
:105190000000000000000000000000000000FC3FD4
:1051A000FC3F0C000C000C000C000C00FC1FFC1F52
:1051B0000C000C000C000C000C000C00FC3FFC3F31
:1051C0000000000000000000000000000000F83FA8
:1051D000F83F18001800180018001800F81FF81FF2
:1051E00018001800180018001800180018001800FF
:1051F0000000000000000000000000000000E00FC0
:10520000F83F3C780E6006E007C00300030003FE91
:1052100003FE03C007C006C00EC03CF0F83FE00F1D
:1052200000000000000000000000000000000C3042
:105230000C300C300C300C300C300C30FC3FFC3F90
:105240000C300C300C300C300C300C300C300C307E
:1052500000000000000000000000000000008001CD
:105260008001800180018001800180018001800136
:105270008001800180018001800180018001800126
:105280000000000000000000000000000000000618
:1052900000060006000600060006000600060006DE
:1052A000000600060006180618063807F003E0019D
:1052B00000000000000000000000000000000630B8
:1052C0000618060C060606038601C6006600760070
:1052D000DE008E0106030606060C06180630066080
:1052E00000000000000000000000000000001800A6
:1052F00018001800180018001800180018001800EE
:10530000180018001800180018001800F81FF81FDF
:1053100000000000000000000000000000000EE09F
:105320001EF01EF01EF036D836D836D836D866CCE9
:1053300066CC66CCC6C6C6C6C6C6C6C686C386C347
:1053400000000000000000000000000000000C3021
:105350001C303C303C306C306C30CC30CC308C313C
:105360000C330C330C360C360C3C0C3C0C380C302B
:105370000000000000000000000000000000E00746
:10538000F81F1C380E70066003C003C003C003C0C2
:1053900003C003C003C006600E701C38F81FE0078E
:1053A0000000000000000000000000000000FC0FF2
:1053B000FC1F0C380C300C300C300C300C18FC1F5F
:1053C000FC070C000C000C000C000C000C000C0086
:1053D0000000000000000000000000000000E007E6
:1053E000F81F1C380E70066003E003C003C003C042
:1053F00003C003C007E006630E3F1C3CF83FE0F724
:1054000000C0000000000000000000000000FE0FCF
:10541000FE1F06380630063006300638FE1FFE072F
:1054200006030606060C0618061806300630066047
:105430000000000000000000000000000000E00389
:10544000F80F1C0C0C180C180C001C00F803E00FD3
:10545000001E0038063006300E301C1CF80FE00726
:105460000000000000000000000000000000FE7FBF
:10547000FE7F800180018001800180018001800128
:105480008001800180018001800180018001800114
:1054900000000000000000000000000000000C30D0
:1054A0000C300C300C300C300C300C300C300C301C
:1054B0000C300C300C300C300C301818F81FE00792
:1054C0000000000000000000000000000000036079
:1054D0000630063006300C180C180C18180C180C76
:1054E000380E30063006700760036003C001C0014B
:1054F0000000000000000000000000000000036049
:10550000C361C361C3616633663366336633663332
:1055100066336C1B6C1B6C1B2C1A3C1E380E380E31
:1055200000000000000000000000000000000FE08C
:105530000C7018303018700C600EC00780038003A8
:10554000C003E006700C301C18180C300E6007E029
:10555000000000000000000000000000000003C088
:1055600006600C301C383818300C6006E007C003A9
:105570008001800180018001800180018001800123
:105580000000000000000000000000000000FC7FA0
:10559000FC7F006000300018000C00060003800152
:1055A000C0006000300018000C000600FE7FFE7F87
:1055B0000000000000000000000000000000E00308
:1055C000E003600060006000600060006000600058
:1055D00060006000600060006000600060006000CB
:1055E000600060006000E003E003000000003000A5
:1055F0003000600060006000C000C000C000C0015A
:105600008001800180010003000300030006000602
:105610000000000000000000000000000000E003A7
:10562000E003000300030003000300030003000382
:105630000003000300030003000300030003000352
:10564000000300030003E003E0030000000000008B
:10565000C001C00160036003600330063006180C0F
:10566000180C000000000000000000000000000016
:10567000000000000000000000000000000000002A
:10568000000000000000000000000000000000001A
:105690000000000000000000000000000000FFFF0C
:1056A000FFFF0000000000000000000000000C00F0
:1056B0000C000C000C000C000C00000000000000AE
:1056C00000000000000000000000000000000000DA
:1056D00000000000000000000000000000000000CA
:1056E0000000000000000000F003F8071C0C0C0C88
:1056F000000FF00FF80C0C0C0C0C1C0FF80FF0182E
:105700000000000000000000000000000000180081
:105710001800180018001800D803F80F380C1818D3
:1057200018181818181818181818380CF80FD80363
:105730000000000000000000000000000000000069
:105740000000000000000000C003F007300E180C3D
:105750001800180018001800180C300EF007C003CD
:105760000000000000000000000000000000001821
:105770000018001800180018C01BF01F301C181863
:1057800018181818181818181818301CF01FC01BF3
:105790000000000000000000000000000000000009
:1057A0000000000000000000C003F00F300C1818CB
:1057B000F81FF81F180018003818301CF00FC00729
:1057C0000000000000000000000000000000800F4A
:1057D000C00FC000C000C000F007F007C000C0004C
:1057E000C000C000C000C000C000C000C000C000B9
:1057F00000000000000000000000000000000000A9
:105800000000000000000000E00DF80F180E0C0C66
:105810000C0C0C0C0C0C0C0C0C0C180EF80FE00DF6
:10582000000C0C0C1C06F807F0010000000018002A
:105830001800180018001800D807F80F381C18189E
:1058400018181818181818181818181818181818D8
:105850000000000000000000000000000000C00088
:10586000C000000000000000C000C000C000C00078
:10587000C000C000C000C000C000C000C000C00028
:105880000000000000000000000000000000C00058
:10589000C000000000000000C000C000C000C00048
:1058A000C000C000C000C000C000C000C000C000F8
:1058B000C000C000C000F8007800000000000C002C
:1058C0000C000C000C000C000C0C0C060C038C01E2
:1058D000CC006C00FC009C018C030C030C060C0C2F
:1058E0000000000000000000000000000000C000F8
:1058F000C000C000C000C000C000C000C000C000A8
:10590000C000C000C000C000C000C000C000C00097
:105910000000000000000000000000000000000087
:1059200000000000000000007C3CFF7EC7E383C154
:1059300083C183C183C183C183C183C183C183C147
:105940000000000000000000000000000000000057
:1059500000000000000000009807F80F381C18181D
:1059600018181818181818181818181818181818B7
:105970000000000000000000000000000000000027
:105980000000000000000000C003F00F300C1818E9
:1059900018181818181818181818300CF00FC00319
:1059A00000000000000000000000000000000000F7
:1059B0000000000000000000D803F80F380C181891
:1059C00018181818181818181818380CF80FD803C1
:1059D000180018001800180018000000000000004F
:1059E0000000000000000000C01BF01F301C181851
:1059F00018181818181818181818301CF01FC01B81
:105A0000001800180018001800180000000000001E
:105A10000000000000000000B007F003700030003C
:105A200030003000300030003000300030003000F6
:105A30000000000000000000000000000000000066
:105A40000000000000000000E003F003380E180C16
:105A50003800F003C007000C180C380EF007E00304
:105A60000000000000000000000000000000000036
:105A70008000C000C000C000F007F007C000C000F8
:105A8000C000C000C000C000C000C000C007800748
:105A90000000000000000000000000000000000006
:105AA0000000000000000000181818181818181836
:105AB00018181818181818181818381CF01FE0199A
:105AC00000000000000000000000000000000000D6
:105AD00000000000000000000C18180C180C180C36
